:020000040000FA
:0400000061EF14F0A8
:10060000003F065B4F666D7D077F6F777C395E79B3
:1006100071554C44525358414259734573636F6C42
:100620006861206F206D6F646F3A2000382D4D2077
:10063000352D50415120362D4772005072652D41A5
:1006400071756563200020202020202046494D211F
:10065000004D616E75616C20004772696C6C200002
:1006600054454D503A002020202000430000800EC9
:100670009DEC15F0660E0F6E060E106E9DEC12F0DE
:10068000000E0F6E040E0E6E65EC13F05F0E0E146E
:10069000216E226ACCEC13F021C02BF022C02CF08A
:1006A000000E166E0A0E156E2BC013F02CC014F03F
:1006B0000BEC0EF013C025F014C026F0000E286ECF
:1006C0000A0E276E28EC0FF02550300F8EEC15F037
:1006D000000E0F6E040E0E6E65EC13F05F0E0E141E
:1006E000216E226ACCEC13F021C025F022C026F046
:1006F000000E286E0A0E276E28EC0FF02550300FE2
:100700008EEC15F02F0E8EEC15F0000E0F6E050E10
:100710000E6E65EC13F03F0E0E14216E226ACCECC7
:1007200013F021C02BF022C02CF0000E166E0A0E22
:10073000156E2BC013F02CC014F00BEC0EF013C090
:1007400025F014C026F0000E286E0A0E276E28EC45
:100750000FF02550300F8EEC15F0000E0F6E050EC9
:100760000E6E65EC13F03F0E0E14216E226ACCEC77
:1007700013F021C025F022C026F0000E286E0A0ECC
:10078000276E28EC0FF02550300F8EEC15F02F0E51
:100790008EEC15F0000E0F6E060E0E6E65EC13F06B
:1007A0000E50216E226ACCEC13F021C02BF022C037
:1007B0002CF0000E166E0A0E156E2BC013F02CC016
:1007C00014F00BEC0EF013C025F014C026F0000E50
:1007D000286E0A0E276E28EC0FF02550300F8EEC95
:1007E00015F0000E0F6E060E0E6E65EC13F00E5037
:1007F000216E226ACCEC13F021C025F022C026F035
:10080000000E286E0A0E276E28EC0FF02550300FD0
:100810008EEC15F0C00E9DEC15F0660E0F6E060EF8
:10082000106E9DEC12F0000E0F6E020E0E6E65EC57
:1008300013F05F0E0E14216E226ACCEC13F021C06F
:100840002BF022C02CF0000E166E0A0E156E2BC077
:1008500013F02CC014F00BEC0EF013C025F014C0F4
:1008600026F0000E286E0A0E276E28EC0FF0255099
:10087000300F8EEC15F0000E0F6E020E0E6E65EC52
:1008800013F05F0E0E14216E226ACCEC13F021C01F
:1008900025F022C026F0000E286E0A0E276E28ECE6
:1008A0000FF02550300F8EEC15F03A0E8EEC15F04F
:1008B000000E0F6E010E0E6E65EC13F07F0E0E141F
:1008C000216E226ACCEC13F021C02BF022C02CF058
:1008D000000E166E0A0E156E2BC013F02CC014F00D
:1008E0000BEC0EF013C025F014C026F0000E286E9D
:1008F0000A0E276E28EC0FF02550300F8EEC15F005
:10090000000E0F6E010E0E6E65EC13F07F0E0E14CE
:10091000216E226ACCEC13F021C025F022C026F013
:10092000000E286E0A0E276E28EC0FF02550300FAF
:100930008EEC15F03A0E8EEC15F0000E0F6E000ED8
:100940000E6E65EC13F07F0E0E14216E226ACCEC55
:1009500013F021C02BF022C02CF0000E166E0A0EF0
:10096000156E2BC013F02CC014F00BEC0EF013C05E
:1009700025F014C026F0000E286E0A0E276E28EC13
:100980000FF02550300F8EEC15F0000E0F6E000E9C
:100990000E6E65EC13F07F0E0E14216E226ACCEC05
:1009A00013F021C025F022C026F0000E286E0A0E9A
:1009B000276E28EC0FF02550300F8EEC15F012004A
:1009C000800E9DEC15F0050E4618D8A4EAEF04F051
:1009D000ECEF04F0FFEF04F03B0E0F6E060E106E0E
:1009E0009DEC12F0000E106E000E0F6E000E126ED7
:1009F0000C0E116E0CEC14F0010E8EEC15F0060EC0
:100A00004618D8A406EF05F008EF05F01BEF05F037
:100A1000590E0F6E060E106E9DEC12F0000E106E49
:100A2000000E0F6E000E126E0C0E116E0CEC14F018
:100A3000000E8EEC15F0080E4618D8A422EF05F033
:100A400024EF05F037EF05F0510E0F6E060E106E15
:100A50009DEC12F0000E106E000E0F6E000E126E66
:100A60000C0E116E0CEC14F044508EEC15F0C00E10
:100A70009DEC15F0600E0F6E060E106E9DEC12F0E0
:100A8000000E106E010E0F6E000E126E060E116E2D
:100A90000CEC14F0FF0E116E030E126E000E136EAE
:100AA000000E146E32C001F033C002F034C003F007
:100AB00035C004F0FA0E056E000E066E000E076ECD
:100AC000000E086E57EC11F001C00DF002C00EF0E0
:100AD00003C00FF004C010F080EC0FF0320E0D24B4
:100AE000266E000E0E20276E000E0F20286E000EC0
:100AF0001020296E640E116E000E126E000E136E21
:100B0000000E146E26C00DF027C00EF028C00FF0A6
:100B100029C010F080EC0FF00DC01AF00EC01BF0D1
:100B20000FC01CF010C01DF00A0E1E6E000E1F6ECE
:100B3000000E206E000E216E6DEC10F01A50300F7A
:100B40008EEC15F0FF0E116E030E126E000E136E7A
:100B5000000E146E32C001F033C002F034C003F056
:100B600035C004F0FA0E056E000E066E000E076E1C
:100B7000000E086E57EC11F001C00DF002C00EF02F
:100B800003C00FF004C010F080EC0FF0320E0D2403
:100B9000266E000E0E20276E000E0F20286E000E0F
:100BA0001020296E0A0E116E000E126E000E136ECA
:100BB000000E146E26C00DF027C00EF028C00FF0F6
:100BC00029C010F080EC0FF00DC01AF00EC01BF021
:100BD0000FC01CF010C01DF00A0E1E6E000E1F6E1E
:100BE000000E206E000E216E6DEC10F01A50300FCA
:100BF0008EEC15F0FF0E116E030E126E000E136ECA
:100C0000000E146E32C001F033C002F034C003F0A5
:100C100035C004F0FA0E056E000E066E000E076E6B
:100C2000000E086E57EC11F001C00DF002C00EF07E
:100C300003C00FF004C010F080EC0FF0320E0D2452
:100C40001A6E000E0E201B6E000E0F201C6E000E82
:100C500010201D6E0A0E1E6E000E1F6E000E206EFE
:100C6000000E216E6DEC10F01A50300F8EEC15F066
:100C7000000E106E010E0F6E000E126E090E116E38
:100C80000CEC14F0DF0E8EEC15F06B0E0F6E060EF2
:100C9000106E9DEC12F04250D8B451EF06F053EFB5
:100CA00006F065EF06F0000E426E000E456E010E76
:100CB0009DEC15F0800E9DEC15F0460E0F6E060EA5
:100CC000106E9DEC12F08CEC11F0120002BE74EF6D
:100CD00006F0025007E1080E015CD8B072EF06F092
:100CE00074EF06F09EEF06F003500410D8B47BEFCB
:100CF00006F07DEF06F08DEF06F001C005F0010E65
:100D0000066E052A86EF06F0D8900636052E84EF8B
:100D100006F0065080128CEF07F001C005F0010EBE
:100D2000066E052A96EF06F0D8900636052E94EF4B
:100D300006F00650FF0A80168CEF07F002BEACEFFB
:100D400006F0025007E1100E015CD8B0AAEF06F0E1
:100D5000ACEF06F0DAEF06F0F80E0126FF0E0222E5
:100D600003500410D8B4B7EF06F0B9EF06F0C9EF9E
:100D700006F001C005F0010E066E052AC2EF06F06E
:100D8000D8900636052EC0EF06F0065081128CEF83
:100D900007F001C005F0010E066E052AD2EF06F03D
:100DA000D8900636052ED0EF06F00650FF0A8116C1
:100DB0008CEF07F002BEE8EF06F0025007E1180ED4
:100DC000015CD8B0E6EF06F0E8EF06F016EF07F0AA
:100DD000F00E0126FF0E022203500410D8B4F3EFE8
:100DE00006F0F5EF06F005EF07F001C005F0010E83
:100DF000066E052AFEEF06F0D8900636052EFCEFAB
:100E000006F0065082128CEF07F001C005F0010ECB
:100E1000066E052A0EEF07F0D8900636052E0CEF69
:100E200007F00650FF0A82168CEF07F002BE24EF8F
:100E300007F0025007E1200E015CD8B022EF07F066
:100E400024EF07F052EF07F0E80E0126FF0E022212
:100E500003500410D8B42FEF07F031EF07F041EF43
:100E600007F001C005F0010E066E052A3AEF07F003
:100E7000D8900636052E38EF07F0065083128CEF17
:100E800007F001C005F0010E066E052A4AEF07F0D3
:100E9000D8900636052E48EF07F00650FF0A831655
:100EA0008CEF07F002BE60EF07F0025007E1280E5A
:100EB000015CD8B05EEF07F060EF07F08CEF07F051
:100EC000E00E0126FF0E022203500410D8B46BEF8F
:100ED00007F06DEF07F07DEF07F001C005F0010EA0
:100EE000066E052A76EF07F0D8900636052E74EFC9
:100EF00007F0065084128CEF07F001C005F0010ED8
:100F0000066E052A86EF07F0D8900636052E84EF88
:100F100007F00650FF0A8416120002BE9BEF07F08E
:100F2000025007E1080E015CD8B099EF07F09BEF83
:100F300007F0C5EF07F003500410D8B4A2EF07F094
:100F4000A4EF07F0B4EF07F001C005F0010E066E44
:100F5000052AADEF07F0D8900636052EABEF07F067
:100F600006509212B3EF08F001C005F0010E066EB4
:100F7000052ABDEF07F0D8900636052EBBEF07F027
:100F80000650FF0A9216B3EF08F002BED3EF07F047
:100F9000025007E1100E015CD8B0D1EF07F0D3EF9B
:100FA00007F001EF08F003500410D8B4DAEF07F0AF
:100FB000DCEF07F0EEEF07F001C005F0F80E0526B4
:100FC000010E066E052AE7EF07F0D8900636052ECB
:100FD000E5EF07F006509312B3EF08F001C005F0FB
:100FE000F80E0526010E066E052AF9EF07F0D890D7
:100FF0000636052EF7EF07F00650FF0A9316B3EFFB
:1010000008F002BE0FEF08F0025007E1180E015C75
:10101000D8B00DEF08F00FEF08F03DEF08F00350E7
:101020000410D8B416EF08F018EF08F02AEF08F013
:1010300001C005F0F00E0526010E066E052A23EF0D
:1010400008F0D8900636052E21EF08F006509412CD
:10105000B3EF08F001C005F0F00E0526010E066E94
:10106000052A35EF08F0D8900636052E33EF08F044
:101070000650FF0A9416B3EF08F002BE4BEF08F0DB
:10108000025007E1200E015CD8B049EF08F04BEFA9
:1010900008F079EF08F003500410D8B452EF08F0CC
:1010A00054EF08F066EF08F001C005F0E80E0526E1
:1010B000010E066E052A5FEF08F0D8900636052E61
:1010C0005DEF08F006509512B3EF08F001C005F08F
:1010D000E80E0526010E066E052A71EF08F0D8907D
:1010E0000636052E6FEF08F00650FF0A9516B3EF8F
:1010F00008F002BE87EF08F0025007E1280E015CFD
:10110000D8B085EF08F087EF08F0B3EF08F0035090
:101110000410D8B48EEF08F090EF08F0A2EF08F0BA
:1011200001C005F0E00E0526010E066E052A9BEFB4
:1011300008F0D8900636052E99EF08F00650961262
:10114000B3EF08F001C005F0E00E0526010E066EB3
:10115000052AADEF08F0D8900636052EABEF08F063
:101160000650FF0A96161200000E026E000E016E67
:10117000F2EC12F001C032F002C033F0000E33BEC8
:10118000FF0E346E356E3650236E3750246E256A4E
:10119000266A325023180FE1335024180CE13450E2
:1011A000251809E135502618D8B4D9EF08F0DBEF3F
:1011B00008F0D3EF09F0000E106E010E0F6E000E56
:1011C000126E060E116E0CEC14F0FF0E116E030E73
:1011D000126E000E136E000E146E32C001F033C09A
:1011E00002F034C003F035C004F0FA0E056E000EB4
:1011F000066E000E076E000E086E57EC11F001C06F
:101200000DF002C00EF003C00FF004C010F080EC2F
:101210000FF0320E0D24276E000E0E20286E000EE9
:101220000F20296E000E10202A6E640E116E000E23
:10123000126E000E136E000E146E27C00DF028C043
:101240000EF029C00FF02AC010F080EC0FF00DC096
:101250001AF00EC01BF00FC01CF010C01DF00A0EDB
:101260001E6E000E1F6E000E206E000E216E6DECC5
:1012700010F01A50300F8EEC15F0FF0E116E030EA9
:10128000126E000E136E000E146E32C001F033C0E9
:1012900002F034C003F035C004F0FA0E056E000E03
:1012A000066E000E076E000E086E57EC11F001C0BE
:1012B0000DF002C00EF003C00FF004C010F080EC7F
:1012C0000FF0320E0D24276E000E0E20286E000E39
:1012D0000F20296E000E10202A6E0A0E116E000ECD
:1012E000126E000E136E000E146E27C00DF028C093
:1012F0000EF029C00FF02AC010F080EC0FF00DC0E6
:101300001AF00EC01BF00FC01CF010C01DF00A0E2A
:101310001E6E000E1F6E000E206E000E216E6DEC14
:1013200010F01A50300F8EEC15F0FF0E116E030EF8
:10133000126E000E136E000E146E32C001F033C038
:1013400002F034C003F035C004F0FA0E056E000E52
:10135000066E000E076E000E086E57EC11F001C00D
:101360000DF002C00EF003C00FF004C010F080ECCE
:101370000FF0320E0D241A6E000E0E201B6E000EA2
:101380000F201C6E000E10201D6E0A0E1E6E000E29
:101390001F6E000E206E000E216E6DEC10F01A50C4
:1013A000300F8EEC15F032C036F033C037F012003B
:1013B0005EEC0CF0CEEC15F06650011809E16750B8
:1013C0000218D8B4E6EF09F0E8EF09F0F2EF0AF0FE
:1013D000CEEC15F001C066F002C067F067A2F3EF33
:1013E00009F0F5EF09F0FAEF09F0010E456E010E74
:1013F0009DEC15F04550D8B400EF0AF002EF0AF06A
:10140000F2EF0AF066AA07EF0AF009EF0AF016EF0A
:101410000AF0050E466E000E3B6E0A0E3A6E000E86
:10142000396E000E386E010E9DEC15F066AC1BEFA8
:101430000AF01DEF0AF02AEF0AF0060E466E000EC3
:101440003B6E0F0E3A6E000E396E000E386E010EB6
:101450009DEC15F067A02FEF0AF031EF0AF036EFA0
:101460000AF0080E466E010E9DEC15F066AE3BEFDD
:101470000AF03DEF0AF048EF0AF0442A020E4464F5
:1014800044EF0AF046EF0AF048EF0AF0000E446E0F
:101490004350D8A44EEF0AF050EF0AF0D4EF0AF010
:1014A00066A055EF0AF057EF0AF06BEF0AF03A4AE0
:1014B0003B2A3BBE65EF0AF03B5009E1640E3A5C03
:1014C000D8A065EF0AF067EF0AF06BEF0AF0000EA4
:1014D0003B6E630E3A6E66A470EF0AF072EF0AF08C
:1014E00080EF0AF03A06D8A03B063BBE7CEF0AF03C
:1014F0007AEF0AF080EF0AF0000E3B6E000E3A6EB3
:1015000066A685EF0AF087EF0AF0AFEF0AF0384AD7
:10151000392A39BE95EF0AF0395009E13C0E385CA2
:10152000D8A095EF0AF097EF0AF0AFEF0AF0000E9F
:10153000396E000E386E3A4A3B2A3BBEA9EF0AF0DC
:101540003B5009E1640E3A5CD8A0A9EF0AF0ABEF7A
:101550000AF0AFEF0AF0000E3B6E630E3A6E66A221
:10156000B4EF0AF0B6EF0AF0D4EF0AF03806D8A0CC
:10157000390639BEC0EF0AF0BEEF0AF0D4EF0AF028
:10158000000E396E3B0E386E3A06D8A03B063BBEC5
:10159000CEEF0AF0CCEF0AF0D4EF0AF0000E3B6E6B
:1015A000000E3A6ED4EF0AF066A8D9EF0AF0DBEF2E
:1015B0000AF0E8EF0AF04350D8B4E1EF0AF0E4EFA4
:1015C0000AF0010EE5EF0AF0000E436E000E426EC7
:1015D0004650D8B4EEEF0AF0F0EF0AF0F2EF0AF05E
:1015E000E0EC04F01200000E026E180E016E000E08
:1015F000046E000E036E66EC06F0000E026E190E0D
:10160000016E000E046E000E036E66EC06F0000E16
:10161000026E1A0E016E000E046E000E036E66EC72
:1016200006F0000E026E1B0E016E000E046E000E20
:10163000036E66EC06F0000E086E000E076E1AECE4
:1016400013F08BEF0BF0010E4A24F66EF76A060ECC
:10165000F7220800F550076E086A1AEC13F0000E26
:10166000026E180E016E000E046E010E036E66EC23
:1016700006F0010E4B6EA8EF0BF0010E4924F66E3A
:10168000F76A060EF7220800F550076E086A1AEC92
:1016900013F0000E026E190E016E000E046E010EA4
:1016A000036E66EC06F0020E4B6EA8EF0BF0010E17
:1016B0004824F66EF76A060EF7220800F550076E0A
:1016C000086A1AEC13F0000E026E1A0E016E000E7C
:1016D000046E010E036E66EC06F0030E4B6EA8EF6F
:1016E0000BF0010E4724F66EF76A060EF72208008B
:1016F000F550076E086A1AEC13F0000E026E1B0E0E
:10170000016E000E046E010E036E66EC06F0000E14
:101710004B6EA8EF0BF04B500A6E0B6A0B50000A91
:10172000D8B495EF0BF087EF0BF00A50000AD8B44D
:1017300023EF0BF0010AD8B43DEF0BF0030AD8B445
:1017400057EF0BF0010AD8B471EF0BF087EF0BF0F5
:10175000120002BEB7EF0BF0025007E1080E015C69
:10176000D8B0B5EF0BF0B7EF0BF0CBEF0BF001C03B
:1017700003F0010E046E032AC0EF0BF0D89004367C
:10178000032EBEEF0BF004508014056E0550016E61
:10179000026A5DEF0CF002BED9EF0BF0025007E1D8
:1017A000100E015CD8B0D7EF0BF0D9EF0BF0EFEFD4
:1017B0000BF001C003F0F80E0326010E046E032A9D
:1017C000E4EF0BF0D8900436032EE2EF0BF0045058
:1017D0008114056E0550016E026A5DEF0CF002BEC9
:1017E000FDEF0BF0025007E1180E015CD8B0FBEFE3
:1017F0000BF0FDEF0BF013EF0CF001C003F0F00E57
:101800000326010E046E032A08EF0CF0D89004366C
:10181000032E06EF0CF004508214056E0550016E85
:10182000026A5DEF0CF002BE21EF0CF0025007E1FE
:10183000200E015CD8B01FEF0CF021EF0CF037EF59
:101840000CF001C003F0E80E0326010E046E032A1B
:101850002CEF0CF0D8900436032E2AEF0CF0045035
:101860008314056E0550016E026A5DEF0CF002BE36
:1018700045EF0CF0025007E1280E015CD8B043EFB1
:101880000CF045EF0CF05BEF0CF001C003F0E00E44
:101890000326010E046E032A50EF0CF0D890043694
:1018A000032E4EEF0CF004508414056E0550016EAB
:1018B000026A5DEF0CF0016802681200000E3F6ED4
:1018C000000E3E6E000E0E6E000E0D6E0EBE72EF1E
:1018D0000CF00E5009E1050E0D5CD8A072EF0CF073
:1018E00074EF0CF076EF0CF0D7EF0CF00DC00AF0AF
:1018F000030E0A26010E0B6E000E0C6E0A2A84EFF0
:101900000CF0D8900B360C360A2E81EF0CF00BC081
:1019100007F00CC008F01AEC13F0000E026E0A0E6D
:10192000016EA9EC0BF001500210D8B49AEF0CF044
:101930009CEF0CF0AFEF0CF00DC00AF0010E0B6E37
:10194000000E0C6E0A2AA8EF0CF0D8900B360C365D
:101950000A2EA5EF0CF00B503E120C503F12000E59
:10196000026E090E016EA9EC0BF001500210D8B402
:10197000BCEF0CF0BEEF0CF0D3EF0CF00DC00AF092
:10198000050E0A26010E0B6E000E0C6E0A2ACCEF15
:101990000CF0D8900B360C360A2EC9EF0CF00B5019
:1019A0003E120C503F120D4A0E2A66EF0CF03E50CC
:1019B0003C1807E13F503D18D8A4E1EF0CF0E3EFED
:1019C0000CF0E6EF0CF04C06ECEF0CF0010E4C6E58
:1019D0003EC03CF03FC03DF04C50D8A4F2EF0CF0BC
:1019E000F4EF0CF0F8EF0CF03CC040F03DC041F0DB
:1019F0001200000E316E000E306E000E2F6E41ECA4
:101A000013F072EC12F0CEEC0EF07CEC14F0D3EC90
:101A100015F0B9EC15F06DEC0EF013EF0DF037EC9E
:101A200003F0D8EC09F04550D8B419EF0DF01BEFD6
:101A30000DF00FEF0DF0010E9DEC15F024EF0DF001
:101A400057EC15F0D8EC09F04650D8B42AEF0DF059
:101A50002CEF0DF020EF0DF0010E9DEC15F0230E94
:101A6000026E280E016E7DEC15F05AEF0DF0D8ECE9
:101A700009F0010E316E73EF0DF0B4EC08F0020EB8
:101A8000316E73EF0DF0305009E1650E2F5CD8A078
:101A90004CEF0DF04EEF0DF054EF0DF0000E306EE8
:101AA000000E2F6E23EC10F0D2EC0FF0000E316E12
:101AB00073EF0DF031502D6E2E6A2E50000AD8B4FF
:101AC00064EF0DF056EF0DF02D50000AD8B437EF4B
:101AD0000DF0010AD8B43DEF0DF0030AD8B443EF7E
:101AE0000DF056EF0DF04350D8B479EF0DF07BEFC9
:101AF0000DF07DEF0DF02F4A302AF3EC0AF0C6EC22
:101B000015F02FEF0DF000EF00F0000E0A6E08BE8A
:101B10008EEF0DF08CEF0DF098EF0DF0081E071E04
:101B2000061E056C000E062207220822010E0A6E10
:101B300004BE9FEF0DF09DEF0DF0A9EF0DF0041E18
:101B4000031E021E016C000E022203220422010E5B
:101B50000A1A000E0B6E000E0C6E000E0D6E000EBB
:101B60000E6E0550061007100810D8B4BAEF0DF02D
:101B7000BCEF0DF0F2EF0DF0010E096EC6EF0DF0A7
:101B8000D8900536063607360836092A08AECBEF58
:101B90000DF0CDEF0DF0C0EF0DF0D8900B360C36F8
:101BA0000D360E360550015C06500258075003589A
:101BB00008500458D8A0DFEF0DF0E1EF0DF0EAEF88
:101BC0000DF00550015E0650025A0750035A0850A6
:101BD000045A0B80D8900832073206320532092E9B
:101BE000CDEF0DF00A50D8B4F8EF0DF0FAEF0DF08C
:101BF00002EF0EF00E1E0D1E0C1E0B6C000E0C22C2
:101C00000D220E220BC001F00CC002F00DC003F03B
:101C10000EC004F01200000E186E16BE14EF0EF087
:101C200012EF0EF01AEF0EF0156C161ED8B0162A31
:101C3000010E186E14BE21EF0EF01FEF0EF027EF0D
:101C40000EF0136C141ED8B0142A010E181A000ED0
:101C50001A6E000E196E15501610D8B432EF0EF031
:101C600034EF0EF05CEF0EF0010E176E3CEF0EF04D
:101C7000D89015361636172A16AE41EF0EF043EF00
:101C80000EF038EF0EF0D89019361A361550135C56
:101C900016501458D8A04FEF0EF051EF0EF056EF3B
:101CA0000EF01550135E1650145A1980D890163243
:101CB0001532172E43EF0EF01850D8B462EF0EF025
:101CC00064EF0EF068EF0EF0196C1A1ED8B01A2AE5
:101CD00019C013F01AC014F0120020EE5EF010EEDE
:101CE0000FF0070EDBCFE3FFE806FCE220EE56F034
:101CF00010EE17F0070EDBCFE3FFE806FCE220EE64
:101D00004EF010EE1FF0070EDBCFE3FFE806FCE21B
:101D1000400E9DEC15F0000E276E0F0E2724D96E95
:101D2000DA6A000EDA22DF508EEC15F0272A070E51
:101D300027649DEF0EF09FEF0EF08DEF0EF0480E32
:101D40009DEC15F0000E276E170E2724D96EDA6A67
:101D5000000EDA22DF508EEC15F0272A070E2764DA
:101D6000B4EF0EF0B6EF0EF0A4EF0EF0500E9DECB7
:101D700015F0000E276E1F0E2724D96EDA6A000EAA
:101D8000DA22DF508EEC15F0272A070E2764CBEFFE
:101D90000EF0CDEF0EF0BBEF0EF01200000E026E53
:101DA0001C0E016E000E046E000E036E8DEC07F02B
:101DB000000E026E1D0E016E000E046E000E036E0C
:101DC0008DEC07F0EDEC13F0000E026E0F0E016EBD
:101DD000AEEC14F0000E0B6E000E0A6E030E44EC17
:101DE00015F0000E026E050E016EAEEC14F0000E42
:101DF0000B6E000E0A6E030E44EC15F0000E026E20
:101E0000A00E016ED7EC15F0000E0B6E000E0A6EE0
:101E1000030E44EC15F0000E026EA00E016ED7EC1E
:101E200015F0000E0B6E000E0A6E020E44EC15F05B
:101E3000000E026E0A0E016EAEEC14F0280E9DEC40
:101E400015F00C0E9DEC15F0010E9DEC15F0120036
:101E5000000E2A6E26BE31EF0FF02FEF0FF037EF96
:101E60000FF0256C261ED8B0262A010E2A6E28BE39
:101E70003EEF0FF03CEF0FF042EF0FF0276C281E03
:101E8000D8B0282A27502810D8B449EF0FF04BEFCC
:101E90000FF06FEF0FF0010E296E53EF0FF0D89097
:101EA00027362836292A28AE58EF0FF05AEF0FF0C0
:101EB0004FEF0FF02750255C28502658D8A063EF2D
:101EC0000FF065EF0FF069EF0FF02750255E2850F7
:101ED000265AD89028322732292E5AEF0FF02A504E
:101EE000D8B475EF0FF077EF0FF07BEF0FF0256CA4
:101EF000261ED8B0262A25C025F026C026F01200BE
:101F0000000E156E000E166E000E176E000E186E87
:101F10001150121013101410D8B491EF0FF093EF6A
:101F20000FF0C9EF0FF0010E196E9DEF0FF0D89072
:101F30001136123613361436192A14AEA2EF0FF0EA
:101F4000A4EF0FF097EF0FF0D8901536163617362E
:101F5000183611500D5C12500E5813500F58145073
:101F60001058D8A0B6EF0FF0B8EF0FF0C1EF0FF098
:101F700011500D5E12500E5A13500F5A1450105A31
:101F80001580D8901432133212321132192EA4EF68
:101F90000FF015C00DF016C00EF017C00FF018C0EE
:101FA00010F01200000E2B6E000E166E0A0E156E4B
:101FB0003AC013F03BC014F00BEC0EF013C025F048
:101FC00014C026F0000E286E0A0E276E28EC0FF0C3
:101FD000255046EC12F0010E2B6E3AC025F03BC0A6
:101FE00026F0000E286E0A0E276E28EC0FF0255002
:101FF00046EC12F0020E2B6E000E166E0A0E156ED7
:1020000038C013F039C014F00BEC0EF013C025F0FB
:1020100014C026F0000E286E0A0E276E28EC0FF072
:10202000255046EC12F0030E2B6E38C025F039C057
:1020300026F0000E286E0A0E276E28EC0FF02550B1
:1020400046EC12F012004350D8B429EF10F02BEFF9
:1020500010F06CEF10F03806D8A0390639BE35EF15
:1020600010F033EF10F049EF10F03BBE40EF10F0EE
:102070003B5008E13A04D8A040EF10F042EF10F0D6
:1020800049EF10F0000E396E3B0E386E3A06D8A0BC
:102090003B0639BE50EF10F04EEF10F06CEF10F031
:1020A0003A503B10D8A457EF10F059EF10F06CEFF6
:1020B00010F0000E396E000E386E4350D8B463EF46
:1020C00010F066EF10F0010E67EF10F0000E436E97
:1020D000010E426EE0EC04F012001E501F102010A2
:1020E0002110D8B476EF10F078EF10F0A8EF10F0D0
:1020F000010E226E82EF10F0D8901E361F36203669
:102100002136222A21AE87EF10F089EF10F07CEF04
:1021100010F01E501A5C1F501B5820501C582150A4
:102120001D58D8A096EF10F098EF10F0A0EF10F027
:102130001E501A5E1F501B5A20501C5A21501D5A07
:10214000D890213220321F321E32222E89EF10F019
:102150001AC01AF01BC01BF01CC01CF01DC01DF0E3
:102160001200000E066E000E056E03500410D8B467
:10217000BCEF10F0BEEF10F0E6EF10F0010E076EAE
:10218000C6EF10F0D89003360436072A04AECBEF22
:1021900010F0CDEF10F0C2EF10F0D89005360636F3
:1021A0000350015C04500258D8A0D9EF10F0DBEFC7
:1021B00010F0E0EF10F00350015E0450025A058069
:1021C000D89004320332072ECDEF10F005C001F095
:1021D00006C002F01200236E010ECB241B6E1C6A97
:1021E000000E1C2223C01DF01E6A6AEC15F01BC0F5
:1021F00024F01CC025F024C001F025C002F0000E20
:10220000046E190E036EB1EC10F001C024F002C090
:1022100025F0FF0E2416030E251624C021F025C03C
:1022200022F0D89022322132D8902232213221500D
:10223000BB6E24C021F0030E21162138F00BBA1218
:102240001200000E046E000E036E4BEF11F0000E34
:10225000066E000E056E000E086E000E076E074A31
:10226000082A085009E1030E075CD8A03AEF11F0E4
:102270003CEF11F02FEF11F0054A062A065009E154
:10228000290E055CD8A047EF11F049EF11F02BEFB4
:1022900011F0034A042A0150035C02500458D8A0EC
:1022A00054EF11F056EF11F027EF11F01200000E6D
:1022B000096E000E0A6E000E0B6E000E0C6E01A071
:1022C00064EF11F066EF11F06EEF11F00550092682
:1022D00006500A2207500B2208500C22D8900536CF
:1022E000063607360836D8900432033202320132FD
:1022F0000150021003100410D8A481EF11F083EFF5
:1023000011F05FEF11F009C001F00AC002F00BC03C
:1023100003F00CC004F01200640EEBEC10F0010EA0
:10232000026EF40E016E21EC11F0000EEBEC10F0D9
:10233000010E026EF40E016E21EC11F0640EEBEC56
:1023400010F0010E026EF40E016E21EC11F0000E81
:10235000EBEC10F0010E026EF40E016E21EC11F0A8
:10236000640EEBEC10F0010E026EF40E016E21EC27
:1023700011F0000EEBEC10F012000A6E0A50D8B407
:10238000C4EF11F0C6EF11F0C8EF11F088EC13F0B4
:10239000000E0B6E09BECFEF11F0D2EF11F0010E5F
:1023A000D3EF11F0000E1AEC12F0D89009360B2A78
:1023B000070E0B64DEEF11F0E0EF11F0CAEF11F041
:1023C00095EC14F00850D8B4E8EF11F0EAEF11F0F2
:1023D000ECEF11F0C6EC14F012000D6E0DC00CF015
:1023E0000C3A0F0E0C160C50076E086A1AEC13F01C
:1023F000000E026E1D0E016E0AC003F00BC004F049
:1024000066EC06F0ABEC13F00DC00CF00F0E0C16E2
:102410000C50076E086A1AEC13F0000E026E1D0EC7
:10242000016E0AC003F00BC004F066EC06F0ABECE2
:1024300013F01200076E0750D8B421EF12F023EF0B
:1024400012F027EF12F029EC14F029EF12F007EC4C
:1024500015F0D8EC15F045EC14F00009D8B433EFC2
:1024600012F035EF12F02BEF12F00750D8B43BEF1B
:1024700012F03DEF12F03FEF12F029EC14F0D8EC1F
:1024800015F01CEC15F0D8EC15F012002C6E2B504A
:10249000D8A44DEF12F04FEF12F051EF12F02CC014
:1024A0004AF02B04D8A457EF12F059EF12F05BEF6B
:1024B00012F02CC049F0020E2B18D8A462EF12F0D3
:1024C00064EF12F066EF12F02CC048F0030E2B18E8
:1024D000D8A46DEF12F06FEF12F071EF12F02CC074
:1024E00047F01200000E026E180E016E000E046E10
:1024F000000E036E8DEC07F0000E026E190E016ED9
:10250000000E046E000E036E8DEC07F0000E026EDE
:102510001A0E016E000E046E000E036E8DEC07F0B5
:10252000000E026E1B0E016E000E046E000E036E96
:102530008DEC07F0EDEC13F01200000E146E000E9F
:10254000136EB3EF12F013500F24116E14501020BD
:10255000126E11C0F6FF12C0F7FF0800F5508EECA6
:1025600015F0134A142A13500F24116E1450102022
:10257000126E11C0F6FF12C0F7FF0800F5500009F7
:10258000D8A4C5EF12F0C7EF12F0A3EF12F01200BB
:102590000A6E000E0D6E000E0C6E000E0B6E95ECAA
:1025A00014F0096E0D500D2409100D6E0B4A0C2A03
:1025B0000C5009E1080E0B5CD8A0E1EF12F0E3EF3C
:1025C00012F0CFEF12F00A501AEC12F00850D8B403
:1025D000ECEF12F0EEEF12F0F0EF12F0C6EC14F0A8
:1025E0000D501200C30EC216025007E1030E015C2B
:1025F000D8B0FDEF12F0FFEF12F003EF13F001443B
:10260000E846FC0BC212C282C2B209EF13F00BEF14
:1026100013F004EF13F0C4CF03F0046A0350046E08
:10262000036AC3500326000E042203C001F004C055
:1026300002F01200000E026E080E016E000E046E13
:10264000000E036E66EC06F0000E096E000E026EC0
:102650001E0E016E800E0714036E046A66EC06F00F
:10266000F2EC14F0D89007360836092A070E0964F0
:102670003CEF13F03EEF13F026EF13F0DDEC14F017
:102680001200000E026E000E016E000E046E010EAE
:10269000036E8DEC07F0000E026E010E016E000E4F
:1026A000046E010E036E8DEC07F0000E026E020E3A
:1026B000016E000E046E010E036E8DEC07F0C280F9
:1026C0000C0EC16EAA0EC06E1200000E086ED00E67
:1026D000096E010EBDEC11F0000E086E0EC009F07F
:1026E000000EBDEC11F0000E086ED10E096E010E49
:1026F000BDEC11F0010E086E010EC8EC12F0106E68
:102700001050116E126A11C00EF012C00FF01200BC
:102710004D50D8B48EEF13F090EF13F0A0EF13F0FC
:1027200029EC14F0D8EC15F045EC14F00009D8B4FD
:102730009CEF13F09EEF13F094EF13F0D8EC15F02C
:1027400029EC14F007EC15F0D8EC15F01CEC15F0A2
:10275000010E4D6E1200000E026E1C0E016E000E78
:10276000046E010E036E66EC06F0000E026E050E9E
:10277000016ED7EC15F0000E026E1C0E016E000EFD
:10278000046E000E036E66EC06F0000E026E050E7F
:10279000016ED7EC15F012000F0E2114236E000EFF
:1027A0002214246E000E166E100E156E21C013F04A
:1027B00022C014F00BEC0EF013C01BF014C01CF080
:1027C000000E1E6E0A0E1D6E6AEC15F023501B24BF
:1027D000216E24501C20226E1200000E026E1F0E6D
:1027E000016E000E046E000E036E8DEC07F0000EFD
:1027F000026E080E016E000E046E000E036E8DEC6C
:1028000007F0000E026E1E0E016E000E046E000E2A
:10281000036E8DEC07F012000F501010D8A413EFC8
:1028200014F015EF14F01AEF14F011500F0B800F85
:102830009DEC15F00F041010D8A421EF14F023EF35
:1028400014F028EF14F011500F0BC00F9DEC15F091
:102850001200000E026E0C0E016E000E046E010ED0
:10286000036E8DEC07F0000E026E0C0E016EA9ECEB
:102870000BF001500210D8A440EF14F043EF14F015
:10288000010E44EF14F0000E1200000E026E0B0E4B
:10289000016E000E046E010E036E8DEC07F0000E4B
:1028A000026E0B0E016EA9EC0BF001500210D8A4C1
:1028B0005CEF14F05FEF14F0010E60EF14F0000E07
:1028C0001200580EF66E2B0EF76E000EF86E00EE2C
:1028D0004EF010EE1AF00900F5CFEEFFE550E15092
:1028E000FAE100EE32F01C0EEE6AE806FDE1000EA1
:1028F000F86E0001F9EF0CF0EDEC13F0000E026E33
:102900000A0E016E000E046E010E036E8DEC07F0D0
:10291000000E026E090E016E000E046E010E036EB3
:102920008DEC07F00C0EC16E120029EC14F0D8ECFF
:1029300015F045EC14F00009D8B4A1EF14F0A3EFA2
:1029400014F099EF14F029EC14F0076ED8EC15F0A0
:102950001CEC15F0D8EC15F007501200000E056EB7
:10296000000E046EB6EF14F0044A052A0150045C10
:102970000550800A036E0250800A0358D8A0C3EFA6
:1029800014F0C5EF14F0B4EF14F0120007EC15F0DA
:10299000D8EC15F045EC14F00009D8B4D2EF14F0DF
:1029A000D4EF14F0CAEF14F0D8EC15F029EC14F0C1
:1029B000D8EC15F0000E4D6E1200000E026E1F0EC8
:1029C000016E000E046E010E036E66EC06F0000E42
:1029D000026E1F0E016E000E046E000E036E66EC9A
:1029E00006F01200000E026E080E016E000E046E5C
:1029F000010E036E66EC06F0000E026E080E016E0C
:102A0000000E046E000E036E66EC06F01200000E5F
:102A1000026E0C0E016E000E046E000E036E8DEC45
:102A200007F0000E026E0C0E016E000E046E000E1A
:102A3000036E66EC06F01200000E026E0B0E016EC5
:102A4000000E046E000E036E8DEC07F0000E026E99
:102A50000B0E016E000E046E000E036E66EC06F0A7
:102A60001200480E016EE80E026E010E036E000E9B
:102A7000046E0FC005F010C006F0076A086A85EC06
:102A80000DF00104CB6E12000C6E0CC007F0086A4A
:102A90001AEC13F0000E026E1D0E016E0AC003F058
:102AA0000BC004F066EC06F0ABEC13F01200800EE5
:102AB0009DEC15F01B0E0F6E060E106E9DEC12F0C5
:102AC000C00E9DEC15F02C0E0F6E060E106E9DECD8
:102AD00012F012001B501D02F3CF1FF0F4CF20F0B4
:102AE0001B501E02F35020261C501D02F3502026BE
:102AF0001FC01BF020C01CF01200D8900134036EE0
:102B00000234046E031E041E320E035E000E045ACD
:102B10000450D76E03C0D6FFF29412000E6E000E62
:102B20000B6E010E0A6E0E50EDEC11F0000E026EEF
:102B3000500E016ED7EC15F012000E6E000E0B6EEB
:102B4000000E0A6E0E50EDEC11F0000E026E020E39
:102B5000016EAEEC14F01200040E150404150E0400
:102B60000404040404150E04040E150404040404EF
:102B700010009492030ECA12CA840C0EBA6E000E94
:102B8000106E640E0F6E31EC15F01200F2A4CBEF54
:102B900015F0CDEF15F0C6EF15F0120040C001F0B2
:102BA00041C002F01200080ED56ED58E1200120040
:022BB000120011
:020000040020DA
:08000000FFFFFFFFFFFFFFFF00
:020000040030CA
:0E000000FF027100FF8380FF0FC00FE00F4072
:00000001FF
